:020000040800F2
:1000000000500020551A000831180008391800085F
:1000100041180008491800085118000800000000A5
:100020000000000000000000000000005918000857
:100030006518000800000000711800087D1800080D
:100040009D1A00089D1A00089D1A00089D1A0008B4
:100050009D1A00089D1A00089D1A00089D1A0008A4
:100060009D1A00089D1A00089D1A00089D1A000894
:100070009D1A00089D1A00089D1A00089D1A000884
:100080009D1A00089D1A00089D1A00089D1A000874
:100090009D1A00089D1A00089D1A00089D1A000864
:1000A0009D1A00089D1A00089D1A00089D1A000854
:1000B0009D1A00089D1A00089D1A0008891800085A
:1000C0009D1800089D1A00089D1A00089D1A000836
:1000D0009D1A0008B11800089D1A00089D1A000812
:1000E0009D1A00089D1A00089D1A000800000000D3
:1000F0000000000000000000000000000000000000
:0C01000000000000000000005FF808F1A3
:1001100010B5054C237833B9044B13B10448AFF341
:1001200000800123237010BDD401002000000000D6
:100130008488000808B5034B1BB103490348AFF39B
:10014000008008BD00000000D8010020848800085D
:10015000034613F8012B002AFBD1181A0138704707
:1001600081F0004102E000BF83F0004330B54FEA68
:1001700041044FEA430594EA050F08BF90EA020FD5
:100180001FBF54EA000C55EA020C7FEA645C7FEA68
:10019000655C00F0E2804FEA5454D4EB5555B8BF8B
:1001A0006D420CDD2C4480EA020281EA030382EAFC
:1001B000000083EA010180EA020281EA0303362D8E
:1001C00088BF30BD11F0004F4FEA01314FF4801C61
:1001D0004CEA113102D0404261EB410113F0004F73
:1001E0004FEA03334CEA133302D0524263EB43032A
:1001F00094EA050F00F0A780A4F10104D5F1200EC8
:100200000DDB02FA0EFC22FA05F2801841F1000122
:1002100003FA0EF2801843FA05F359410EE0A5F1F6
:1002200020050EF1200E012A03FA0EFC28BF4CF027
:10023000020C43FA05F3C01851EBE37101F00045DD
:1002400007D54FF0000EDCF1000C7EEB00006EEBEA
:100250000101B1F5801F1BD3B1F5001F0CD3490874
:100260005FEA30004FEA3C0C04F101044FEA4452CB
:1002700012F5800F80F09A80BCF1004F08BF5FEA52
:10028000500C50F1000041EB045141EA050130BD32
:100290005FEA4C0C404141EB0101013C28BFB1F544
:1002A000801FE9D291F0000F04BF01460020B1FA8F
:1002B00081F308BF2033A3F10B03B3F120020CDA62
:1002C0000C3208DD02F1140CC2F10C0201FA0CF040
:1002D00021FA02F10CE002F11402D8BFC2F1200CA5
:1002E00001FA02F120FA0CFCDCBF41EA0C0190405B
:1002F000E41AA2BF01EB0451294330BD6FEA0404A4
:100300001F3C1CDA0C340EDC04F11404C4F120028E
:1003100020FA04F001FA02F340EA030021FA04F3A0
:1003200045EA030130BDC4F10C04C4F1200220FAF7
:1003300002F001FA04F340EA0300294630BD21FA35
:1003400004F0294630BD94F0000F83F4801306BFFB
:1003500081F480110134013D4EE77FEA645C18BFEF
:100360007FEA655C29D094EA050F08BF90EA020F86
:1003700005D054EA000C04BF1946104630BD91EA7E
:10038000030F1EBF0021002030BD5FEA545C05D181
:100390004000494128BF41F0004130BD14F58004C0
:1003A0003CBF01F5801130BD01F0004545F0FE4134
:1003B00041F470014FF0000030BD7FEA645C1ABF69
:1003C000194610467FEA655C1CBF0B46024650EAA0
:1003D000013406BF52EA033591EA030F41F40021CC
:1003E00030BD00BF90F0000F04BF0021704730B552
:1003F0004FF4806404F132044FF000054FF0000127
:1004000050E700BF90F0000F04BF0021704730B5E7
:100410004FF4806404F1320410F0004548BF4042BC
:100420004FF000013EE700BF42004FEAE2014FEA11
:1004300031014FEA02701FBF12F07F4393F07F4FEC
:1004400081F06051704732F07F4208BF704793F0EF
:100450007F4F04BF41F40021704730B54FF4607402
:1004600001F0004521F000411CE700BF50EA010205
:1004700008BF704730B54FF000050AE050EA0102AE
:1004800008BF704730B511F0004502D5404261EB1E
:1004900041014FF4806404F132045FEA915C3FF45F
:1004A000D8AE4FF003025FEADC0C18BF03325FEAFC
:1004B000DC0C18BF033202EBDC02C2F1200300FAAD
:1004C00003FC20FA02F001FA03FE40EA0E0021FAD2
:1004D00002F11444BDE600BF70B54FF0FF0C4CF4C0
:1004E000E06C1CEA11541DBF1CEA135594EA0C0F72
:1004F00095EA0C0F00F0DEF82C4481EA030621EAAD
:100500004C5123EA4C5350EA013518BF52EA0335E7
:1005100041F4801143F4801338D0A0FB02CE4FF099
:100520000005E1FB02E506F00042E0FB03E54FF0C9
:100530000006E1FB03569CF0000F18BF4EF0010EC1
:10054000A4F1FF04B6F5007F64F5407404D25FEABD
:100550004E0E6D4146EB060642EAC62141EA555170
:100560004FEAC52040EA5E504FEACE2EB4F1FD0CB2
:1005700088BFBCF5E06F1ED8BEF1004F08BF5FEA30
:10058000500E50F1000041EB045170BD06F00046E2
:1005900046EA010140EA020081EA0301B4EB5C048F
:1005A000C2BFD4EB0C0541EA045170BD41F4801187
:1005B0004FF0000E013C00F3AB8014F1360FDEBFAC
:1005C000002001F0004170BDC4F10004203C35DA88
:1005D0000C341BDC04F11404C4F1200500FA05F30B
:1005E00020FA04F001FA05F240EA020001F00042AC
:1005F00021F0004110EBD37021FA04F642EB060122
:100600005EEA430E08BF20EAD37070BDC4F10C044B
:10061000C4F1200500FA04F320FA05F001FA04F20F
:1006200040EA020001F0004110EBD37041F10001FB
:100630005EEA430E08BF20EAD37070BDC4F1200506
:1006400000FA05F24EEA020E20FA04F301FA05F26E
:1006500043EA020321FA04F001F0004121FA04F216
:1006600020EA020000EBD3705EEA430E08BF20EAE6
:10067000D37070BD94F0000F0FD101F00046400020
:1006800041EB010111F4801F08BF013CF7D041EAA2
:10069000060195F0000F18BF704703F000465200A6
:1006A00043EB030313F4801F08BF013DF7D043EA77
:1006B0000603704794EA0C0F0CEA135518BF95EA2D
:1006C0000C0F0CD050EA410618BF52EA4306D1D1B4
:1006D00081EA030101F000414FF0000070BD50EAD3
:1006E000410606BF1046194652EA430619D094EA5D
:1006F0000C0F02D150EA013613D195EA0C0F05D147
:1007000052EA03361CBF104619460AD181EA03019A
:1007100001F0004141F0FE4141F470014FF0000052
:1007200070BD41F0FE4141F4780170BD70B54FF0ED
:10073000FF0C4CF4E06C1CEA11541DBF1CEA13556D
:1007400094EA0C0F95EA0C0F00F0A7F8A4EB05044F
:1007500081EA030E52EA03354FEA013100F0888046
:100760004FEA03334FF0805545EA131343EA12630F
:100770004FEA022245EA111545EA10654FEA0026C4
:100780000EF000419D4208BF964244F1FD0404F57D
:10079000407402D25B084FEA3202B61A65EB0305D9
:1007A0005B084FEA32024FF480104FF4002CB6EB96
:1007B000020E75EB030E22BFB61A754640EA0C0016
:1007C0005B084FEA3202B6EB020E75EB030E22BF56
:1007D000B61A754640EA5C005B084FEA3202B6EB97
:1007E000020E75EB030E22BFB61A754640EA9C0056
:1007F0005B084FEA3202B6EB020E75EB030E22BF26
:10080000B61A754640EADC0055EA060E18D04FEAE3
:10081000051545EA16754FEA06164FEAC30343EA83
:1008200052734FEAC2025FEA1C1CC0D111F4801F50
:100830000BD141EA00014FF000004FF0004CB6E749
:1008400011F4801F04BF01430020B4F1FD0C88BFE8
:10085000BCF5E06F3FF6AFAEB5EB030C04BFB6EBF3
:10086000020C5FEA500C50F1000041EB045170BDE6
:100870000EF0004E4EEA113114EB5C04C2BFD4EB13
:100880000C0541EA045170BD41F480114FF0000E97
:10089000013C90E645EA060E8DE60CEA135594EA13
:1008A0000C0F08BF95EA0C0F3FF43BAF94EA0C0F16
:1008B0000AD150EA01347FF434AF95EA0C0F7FF48B
:1008C00025AF104619462CE795EA0C0F06D152EADF
:1008D00003353FF4FDAE1046194622E750EA4106C3
:1008E00018BF52EA43067FF4C5AE50EA41047FF4D4
:1008F0000DAF52EA43057FF4EBAE12E74FF0FF3C39
:1009000006E000BF4FF0010C02E000BF4FF0010C09
:100910004DF804CD4FEA410C7FEA6C5C4FEA430C82
:1009200018BF7FEA6C5C1BD001B050EA410C0CBFD1
:1009300052EA430C91EA030F02BF90EA020F002033
:10094000704710F1000F91EA030F58BF994208BF9A
:1009500090422CBFD8176FEAE37040F00100704757
:100960004FEA410C7FEA6C5C02D150EA013C07D1AE
:100970004FEA430C7FEA6C5CD6D152EA033CD3D0F9
:100980005DF8040B704700BF8446104662468C46F3
:100990001946634600E000BF01B5FFF7B7FF002826
:1009A00048BF10F1000F01BD4DF808EDFFF7F4FF4F
:1009B0000CBF012000205DF808FB00BF4DF808EDDA
:1009C000FFF7EAFF34BF012000205DF808FB00BFFD
:1009D0004DF808EDFFF7E0FF94BF012000205DF81F
:1009E00008FB00BF4DF808EDFFF7CEFF94BF0120D4
:1009F00000205DF808FB00BF4DF808EDFFF7C4FFCD
:100A000034BF012000205DF808FB00BF4FEA410C15
:100A10007FEA6C5C02D150EA013C0AD14FEA430CF8
:100A20007FEA6C5C02D152EA033C02D14FF0000035
:100A300070474FF0010070474FEA410212F5001273
:100A400015D211D56FF47873B3EB625212D94FEA15
:100A5000C12343F0004343EA505311F0004F23FAFF
:100A600002F018BF404270474FF00000704750EA54
:100A7000013005D111F0004008BF6FF00040704711
:100A80004FF00000704700BF80F0004002E000BF60
:100A900081F0004142001FBF5FEA410392EA030F69
:100AA0007FEA226C7FEA236C6AD04FEA1262D2EBB3
:100AB0001363C1BFD218414048404140B8BF5B42B8
:100AC000192B88BF704710F0004F40F4000020F051
:100AD0007F4018BF404211F0004F41F4000121F067
:100AE0007F4118BF494292EA030F3FD0A2F10102B1
:100AF00041FA03FC10EB0C00C3F1200301FA03F1EF
:100B000000F0004302D5494260EB4000B0F5000F11
:100B100013D3B0F1807F06D340084FEA310102F1D0
:100B20000102FE2A51D2B1F1004F40EBC25008BF82
:100B300020F0010040EA03007047490040EB00004C
:100B4000013A28BFB0F5000FEDD2B0FA80FCACF14D
:100B5000080CB2EB0C0200FA0CF0AABF00EBC2507A
:100B600052421843BCBFD0401843704792F0000F68
:100B700081F4000106BF80F400000132013BB5E7BB
:100B80004FEA41037FEA226C18BF7FEA236C21D031
:100B900092EA030F04D092F0000F08BF0846704796
:100BA00090EA010F1CBF0020704712F07F4F04D164
:100BB000400028BF40F00040704712F100723CBF77
:100BC00000F50000704700F0004343F0FE4040F4A1
:100BD000000070477FEA226216BF08467FEA23635F
:100BE0000146420206BF5FEA412390EA010F40F44A
:100BF000800070474FF0000304E000BF10F0004396
:100C000048BF40425FEA000C08BF704743F096437C
:100C100001464FF000001CE050EA010208BF704797
:100C20004FF000030AE000BF50EA010208BF70471E
:100C300011F0004302D5404261EB41015FEA010C33
:100C400002BF84460146002043F0B64308BFA3F12B
:100C50008053A3F50003BCFA8CF2083AA3EBC2530D
:100C600010DB01FA02FC634400FA02FCC2F120022C
:100C7000BCF1004F20FA02F243EB020008BF20F063
:100C80000100704702F1200201FA02FCC2F12002C9
:100C900050EA4C0021FA02F243EB020008BF20EABE
:100CA000DC7070474FF0FF0C1CEAD0521EBF1CEAEC
:100CB000D15392EA0C0F93EA0C0F6FD01A4480EADA
:100CC000010C400218BF5FEA41211ED04FF00063C3
:100CD00043EA501043EA5111A0FB01310CF00040EF
:100CE000B1F5000F3EBF490041EAD3715B0040EA15
:100CF000010062F17F02FD2A1DD8B3F1004F40EBE5
:100D0000C25008BF20F00100704790F0000F0CF0B7
:100D1000004C08BF49024CEA502040EA51207F3A7B
:100D2000C2BFD2F1FF0340EAC250704740F4000056
:100D30004FF00003013A5DDC12F1190FDCBF00F047
:100D400000407047C2F10002410021FA02F1C2F1F5
:100D5000200200FA02FC5FEA310040F1000053EA91
:100D60004C0308BF20EADC70704792F0000F00F0DF
:100D7000004C02BF400010F4000F013AF9D040EAE5
:100D80000C0093F0000F01F0004C02BF490011F479
:100D9000000F013BF9D041EA0C018FE70CEAD15377
:100DA00092EA0C0F18BF93EA0C0F0AD030F0004CF7
:100DB00018BF31F0004CD8D180EA010000F00040AB
:100DC000704790F0000F17BF90F0004F084691F069
:100DD000000F91F0004F14D092EA0C0F01D14202A3
:100DE0000FD193EA0C0F03D14B0218BF084608D16C
:100DF00080EA010000F0004040F0FE4040F40000B6
:100E0000704740F0FE4040F4400070474FF0FF0C48
:100E10001CEAD0521EBF1CEAD15392EA0C0F93EA8F
:100E20000C0F69D0A2EB030280EA010C49024FEAE1
:100E3000402037D04FF0805343EA111143EA10139A
:100E40000CF000408B4238BF5B0042F17D024FF452
:100E5000000C8B4224BF5B1A40EA0C00B3EB510F2D
:100E600024BFA3EB510340EA5C00B3EB910F24BF16
:100E7000A3EB910340EA9C00B3EBD10F24BFA3EB9B
:100E8000D10340EADC001B0118BF5FEA1C1CE0D163
:100E9000FD2A3FF650AF8B4240EBC25008BF20F016
:100EA000010070470CF0004C4CEA50207F32C2BF6A
:100EB000D2F1FF0340EAC250704740F400004FF007
:100EC0000003013A37E792F0000F00F0004C02BF38
:100ED000400010F4000F013AF9D040EA0C0093F002
:100EE000000F01F0004C02BF490011F4000F013B5C
:100EF000F9D041EA0C0195E70CEAD15392EA0C0FC4
:100F000008D142027FF47DAF93EA0C0F7FF470AFFB
:100F1000084676E793EA0C0F04D14B023FF44CAF3E
:100F200008466EE730F0004C18BF31F0004CCAD1D3
:100F300030F000427FF45CAF31F000437FF43CAF0F
:100F40005FE700BF80B586B002AF0346FB71FB7957
:100F500023F00F03FB73FB791B01BB73FB7B43F097
:100F60000C03DBB23B72FB7B43F00803DBB27B720A
:100F7000BB7B43F00C03DBB2BB72BB7B43F00803CB
:100F8000DBB2FB7207F108026423009304234E21B5
:100F9000034801F0B5FA00BF1037BD4680BD00BF61
:100FA0001802002080B586B002AF0346FB71FB79C2
:100FB00023F00F03FB73FB791B01BB73FB7B43F037
:100FC0000D03DBB23B72FB7B43F00903DBB27B72A8
:100FD000BB7B43F00D03DBB2BB72BB7B43F0090369
:100FE000DBB2FB7207F108026423009304234E2155
:100FF000034801F085FA00BF1037BD4680BD00BF31
:101000001802002080B582B000AF8020FFF79AFF61
:1010100000237B6005E02020FFF7C4FF7B680133DD
:101020007B607B68452BF6DD00BF00BF0837BD46FF
:1010300080BD80B582B000AF786039607B68002BDE
:1010400003D07B68012B05D009E03B6843F08003A7
:101050003B6004E03B6843F0C0033B6000BF3B687B
:10106000DBB21846FFF76EFF00BF0837BD4680BDF4
:1010700080B500AF322000F075FD3020FFF762FF31
:10108000052000F06FFD3020FFF75CFF012000F02D
:1010900069FD3020FFF756FF0A2000F063FD202095
:1010A000FFF750FF0A2000F05DFD2820FFF74AFF00
:1010B000012000F057FD0820FFF744FF012000F059
:1010C00051FD0120FFF73EFF012000F04BFD012004
:1010D00000F048FD0620FFF735FF012000F042FD3B
:1010E0000C20FFF72FFF00BF80BD80B582B000AF9E
:1010F000786006E07B685A1C7A601B781846FFF718
:1011000051FF7B681B78002BF4D100BF00BF08376C
:10111000BD4680BD80B586B000AF164B1B787B61A5
:10112000154B1B78013BBB607A69BB681344013BDC
:101130007B607B68092B01DD00F0ACFA01233B6189
:101140000023FB600CE03A69531C3B617B69591C2E
:1011500079610849895C094AD154FB680133FB6015
:10116000FA68BB689A42EEDB00BF00BF1837BD4685
:1011700080BD00BFF4010020F0010020000200202B
:1011800080B582B000AF7860786801F029FB00BFBD
:101190000837BD4680BD000080B582B000AF7860E2
:1011A0000B46FB7013463B80FB78012B0FD10B4B9A
:1011B0001B680133094A1360094B1B781A46094B17
:1011C000D11801230122786801F098FA01E000F0BB
:1011D00061FA00BF0837BD4680BD00BF0C02002089
:1011E000F0010020F401002080B582B000AF7860EB
:1011F000144B1B780133DAB2124B1A70114B1B7867
:10120000092B0AD80F4B1B781A460F4BD118042311
:101210000122786801F072FA09E00A4B1B781A463D
:10122000094BD11820230122786801F067FA074B97
:101230001B680133054A1360FFF76CFF00BF0837D6
:10124000BD4680BDF0010020F40100201002002006
:1012500080B582B000AF7860054B1B680133044A4B
:101260001360786801F0BCFA00BF0837BD4680BD46
:101270001402002080B582B000AF7860114B124A92
:101280001A60104A7B6853600E4B00229A600D4B27
:101290000022DA600B4B00221A610A4B0C225A61C1
:1012A000084B00229A61074B0022DA61054803F0DF
:1012B000E1FD0346002B01D000F0ECF900BF083738
:1012C000BD4680BD6C0200200038014080B582B070
:1012D00000AFF023FB714FF41650FFF7CBFFF91D61
:1012E0000A2301220B4803F01DFEB91D0A23012227
:1012F000084803F0A2FE4FF4E130FFF7BBFFBA79D4
:10130000FB799A4201D0012300E0002318460837F8
:10131000BD4680BD6C02002080B582B000AFFF23C7
:10132000FB71F91D01230122084803F0FBFDB91DE3
:1013300001230122054803F080FEBB7903F001037D
:10134000DBB218460837BD4680BD00BF6C020020E6
:1013500080B582B000AF0023FB710023BB710EE0AB
:10136000FB795B08FB71FFF7D7FF0346002B03D027
:10137000FB7963F07F03FB71BB790133BB71BB79F0
:10138000072BEDD9FB7918460837BD4680BD000014
:1013900080B586B000AF0346FB7100237B6117E088
:1013A000FA797B6942FA03F303F00103002B06D0BC
:1013B00007F10C027B691344FF221A7005E007F164
:1013C0000C027B69134400221A707B6901337B6134
:1013D0007B69072BE4DD07F10C010A23082203488F
:1013E00003F0A0FD00BF1837BD4680BD6C02002091
:1013F00080B500AFFFF76AFFCC20FFF7C9FF44209C
:10140000FFF7C6FF00BF80BD80B582B000AFFFF719
:101410005DFFCC20FFF7BCFFBE20FFF7B9FFFFF751
:1014200097FF0346FB71FFF793FF0346BB71BB7940
:101430001B021AB2FB791BB213431BB2BB80BB88E1
:101440001846FFF7D7FB03464FF083411846FFF7D6
:10145000DDFC03463B603B6818460837BD4680BD4F
:1014600080B500AF00F01CFB00F048F800F0E4F895
:1014700000F08AF800F0B6F8FFF7FAFDFFF7C2FDBA
:10148000642000F06FFB00210020FFF7D2FD16481A
:10149000FFF72BFEFFF7ACFF40F2EE2000F062FBFF
:1014A000FFF7B2FF0346114A1360104B1B68184642
:1014B000FEF7BAFF02460B460D490E4805F0ACF8A0
:1014C00000210120FFF7B5FD0B48FFF70EFE0021BC
:1014D0000120FFF7AEFD0748FFF707FE4FF47A70D3
:1014E00000F040FB00BFD5E7A0880008B402002050
:1014F000AC880008B8020020B488000880B590B01D
:1015000000AF07F1180328220021184605F0E7F87C
:101510003B1D00221A605A609A60DA601A6101234A
:10152000BB614FF48033FB6100233B620123BB624C
:1015300002237B634FF48033BB634FF4E013FB6300
:1015400007F11803184603F085F80346002B01D075
:1015500000F0A0F80F237B600223BB600023FB6038
:101560004FF480633B6100237B613B1D02211846E1
:1015700003F0F2FA0346002B01D000F08BF800BF15
:101580004037BD4680BD000080B500AF124B134A06
:101590001A60114B124A5A600F4B00229A600E4B90
:1015A0002422DA600C4B4FF480421A610A4B00226D
:1015B0005A61094B00229A61074B0022DA61064BFF
:1015C00000221A62044800F043FE0346002B01D0BB
:1015D00000F060F800BF80BD1802002000540040F9
:1015E000A086010080B500AF114B124A1A60104B63
:1015F0004FF4E1325A600E4B00229A600C4B0022ED
:10160000DA600B4B00221A61094B0C225A61084B1D
:1016100000229A61064B0022DA61054803F02AFC99
:101620000346002B01D000F035F800BF80BD00BF9D
:101630006C0200200038014080B485B000AF144B2C
:101640009B69134A43F020039361114B9B6903F09C
:101650002003FB60FB680E4B9B690D4A43F00403BB
:1016600093610B4B9B6903F00403BB60BB68084BA1
:101670009B69074A43F008039361054B9B6903F09C
:1016800008037B607B6800BF1437BD4680BC704791
:101690000010024080B400AF72B600BF00BFFDE78B
:1016A00080B485B000AF154B9B69144A43F0010329
:1016B0009361124B9B6903F00103BB60BB680F4B46
:1016C000DB690E4A43F08053D3610C4BDB6903F0B6
:1016D00080537B607B680A4B5B68FB60FB6823F090
:1016E000E063FB60FB6843F00073FB60044AFB6847
:1016F000536000BF1437BD4680BC704700100240E5
:101700000000014080B588B000AF786007F1100399
:1017100000221A605A609A60DA607B681B681D4A72
:10172000934233D11C4B9B691B4A43F008039361DE
:10173000194B9B6903F00803FB60FB68C0233B6106
:1017400012237B610323FB6107F110031946134841
:1017500000F0FAFB104BDB690F4A43F40013D3612E
:101760000D4BDB6903F40013BB60BB680022002152
:101770001F2000F0F2FA1F2000F00BFB00220021D6
:10178000202000F0EAFA202000F003FB00BF203701
:10179000BD4680BD0054004000100240000C0140D6
:1017A00080B588B000AF786007F1100300221A609E
:1017B0005A609A60DA607B681B681A4A93422CD19F
:1017C000194B9B69184A43F480439361164B9B69FC
:1017D00003F48043FB60FB68134B9B69124A43F0A0
:1017E00004039361104B9B6903F00403BB60BB6867
:1017F0004FF400733B6112237B610323FB6107F10C
:1018000010031946094800F09FFB00220021252003
:1018100000F0A3FA252000F0BCFA00BF2037BD4637
:1018200080BD00BF003801400010024000080140A8
:1018300080B400AF00BFFDE780B400AF00BFFDE79C
:1018400080B400AF00BFFDE780B400AF00BFFDE78C
:1018500080B400AF00BFFDE780B400AF00BFBD465D
:1018600080BC704780B400AF00BFBD4680BC7047ED
:1018700080B400AF00BFBD4680BC704780B500AFEC
:1018800000F054F900BF80BD80B500AF024800F001
:10189000DCFF00BF80BD00BF1802002080B500AF94
:1018A000024801F025F900BF80BD00BF18020020EA
:1018B00080B500AF024803F057FC00BF80BD00BFF9
:1018C0006C02002080B400AF01231846BD4680BCE6
:1018D000704780B582B000AF7860396004F052FF85
:1018E000034616221A604FF0FF3318460837BD46EC
:1018F00080BD80B582B000AF78604FF0FF3178686E
:10190000FFF7E7FF00BFFDE780B586B000AFF860E6
:10191000B9607A6000237B610AE0AFF30080014682
:10192000BB685A1CBA60CAB21A707B6901337B610A
:101930007A697B689A42F0DB7B6818461837BD46A7
:1019400080BD80B586B000AFF860B9607A600023D2
:101950007B6109E0BB685A1CBA601B781846AFF37C
:1019600000807B6901337B617A697B689A42F1DB95
:101970007B6818461837BD4680BD80B483B000AF81
:1019800078604FF0FF3318460C37BD4680BC704777
:1019900080B483B000AF786039603B684FF4005288
:1019A0005A60002318460C37BD4680BC704780B48F
:1019B00083B000AF7860012318460C37BD4680BC69
:1019C000704780B485B000AFF860B9607A600023DA
:1019D00018461437BD4680BC7047000080B586B0FD
:1019E00000AF7860144A154BD31A7B617B693B6169
:1019F000134B1B68002B02D1114B124A1A60104B7B
:101A00001A687B6813443A699A4207D204F0BAFE16
:101A100003460C221A604FF0FF3309E0084B1B68A5
:101A2000FB60074B1A687B681344054A1360FB6828
:101A300018461837BD4680BD005000200004000045
:101A4000C00200201804002080B400AF00BFBD46D3
:101A500080BC7047FFF7F8FF0B480C490C4A002385
:101A600002E0D458C4500433C4188C42F9D3094A54
:101A7000094C002301E013600432A242FBD304F0BE
:101A800087FEFFF7EDFC704700000020D401002026
:101A9000688C0008D401002014040020FEE7000038
:101AA00080B500AF084B1B68074A43F01003136072
:101AB000032000F047F90F2000F008F8FFF7F0FDD1
:101AC0000023184680BD00BF0020024080B582B0D0
:101AD00000AF7860124B1A68124B1B7819464FF40E
:101AE0007A73B3FBF1F3B2FBF3F3184600F05FF93E
:101AF0000346002B01D001230EE07B680F2B0AD890
:101B0000002279684FF0FF3000F027F9064A7B6821
:101B10001360002300E0012318460837BD4680BD4E
:101B200000000020080000200400002080B400AF66
:101B3000054B1B781A46054B1B681344034A136078
:101B400000BFBD4680BC704708000020C4020020D2
:101B500080B400AF024B1B681846BD4680BC70477E
:101B6000C402002080B584B000AF7860FFF7F0FFBA
:101B7000B8607B68FB60FB68B3F1FF3F05D00A4BA0
:101B80001B781A46FB681344FB6000BFFFF7E0FFB9
:101B90000246BB68D31AFA689A42F7D800BF00BF62
:101BA0001037BD4680BD00BF0800002080B485B05E
:101BB00000AF78607B6803F00703FB600C4BDB68C9
:101BC000BB60BA684FF6FF031340BB60FB681A02A4
:101BD000BB68134343F0BF6343F40033BB60044A64
:101BE000BB68D36000BF1437BD4680BC704700BFE0
:101BF00000ED00E080B400AF044BDB681B0A03F08B
:101C000007031846BD4680BC704700BF00ED00E0EA
:101C100080B483B000AF0346FB7197F90730002B07
:101C20000BDBFB7903F01F02064997F907305B09CC
:101C3000012000FA02F241F8232000BF0C37BD4614
:101C400080BC704700E100E080B483B000AF034681
:101C50003960FB7197F90730002B0ADB3B68DAB279
:101C60000C4997F907301201D2B20B4483F80023D4
:101C70000AE03B68DAB20849FB7903F00F03043B42
:101C80001201D2B20B441A7600BF0C37BD4680BC9D
:101C9000704700BF00E100E000ED00E080B489B0D3
:101CA00000AFF860B9607A60FB6803F00703FB617E
:101CB000FB69C3F10703042B28BF0423BB61FB6945
:101CC0000433062B02D9FB69033B00E000237B6150
:101CD0004FF0FF32BB6902FA03F3DA43BB681A40E4
:101CE0007B699A404FF0FF317B6901FA03F3D943D6
:101CF0007B680B40134318462437BD4680BC7047B1
:101D000080B582B000AF78607B68013BB3F1807F23
:101D100001D301230FE00A4A7B68013B53600F2186
:101D20004FF0FF30FFF790FF054B00229A60044B05
:101D300007221A60002318460837BD4680BD00BF41
:101D400010E000E080B582B000AF78607868FFF7FF
:101D50002DFF00BF0837BD4680BD80B586B000AFFF
:101D60000346B9607A60FB7300237B61FFF742FF93
:101D700078617A68B9687869FFF790FF024697F949
:101D80000F3011461846FFF75FFF00BF1837BD46FA
:101D900080BD80B582B000AF0346FB7197F9073074
:101DA0001846FFF735FF00BF0837BD4680BD80B538
:101DB00082B000AF78607868FFF7A2FF034618464C
:101DC0000837BD4680BD80B485B000AF7860002381
:101DD000FB737B6893F82130DBB2022B08D07B6861
:101DE00004229A637B68002283F82020012320E0EC
:101DF0007B681B681A687B681B6822F00E021A60F9
:101E00007B681B681A687B681B6822F001021A60F5
:101E10007B681A6C7B68DB6B012101FA02F25A6065
:101E20007B68012283F821207B68002283F8202030
:101E3000FB7B18461437BD4680BC704780B584B024
:101E400000AF78600023FB737B6893F82130DBB22E
:101E5000022B05D07B6804229A630123FB7351E0B7
:101E60007B681B681A687B681B6822F00E021A6088
:101E70007B681B681A687B681B6822F001021A6085
:101E80007B681B68224A934229D07B681B68214AE1
:101E9000934222D07B681B681F4A93421AD07B680A
:101EA0001B681E4A934212D07B681B681C4A9342EF
:101EB0000AD07B681B681B4A934202D14FF48013FF
:101EC0000EE04FF080730BE04FF4803308E04FF4E6
:101ED000805305E04FF4807302E0102300E00123FB
:101EE000114A53607B68012283F821207B6800221D
:101EF00083F820207B685B6B002B03D07B685B6BD7
:101F000078689847FB7B18461037BD4680BD00BFF8
:101F1000080002401C000240300002404400024021
:101F2000580002406C0002400000024080B483B0C0
:101F300000AF78607B6893F82130DBB218460C372D
:101F4000BD4680BC7047000080B48BB000AF7860A5
:101F5000396000237B6200233B6269E101227B6AD6
:101F600002FA03F3FB613B681B68FA691340BB612B
:101F7000BA69FB699A4240F058813B685B689A4AAB
:101F800093425ED0984A934275D8984A934258D06B
:101F9000964A93426FD8964A934252D0944A9342BB
:101FA00069D8944A93424CD0924A934263D8924A59
:101FB000934246D0904A93425DD8122B2AD8122BD6
:101FC00059D801A252F823F0432000081D20000830
:101FD0002F200008712000087720000877200008D3
:101FE0007720000877200008772000087720000875
:101FF0007720000877200008772000087720000865
:1020000077200008772000087720000825200008A6
:1020100039200008794A934213D02CE03B68DB68F2
:102020003B6229E03B68DB6804333B6224E03B68A9
:10203000DB6808333B621FE03B68DB680C333B62C4
:102040001AE03B689B68002B02D104233B6213E03B
:102050003B689B68012B05D108233B627B68FA69CA
:102060001A6109E008233B627B68FA695A6103E060
:1020700000233B6200E000BFBB69FF2B01D87B68F7
:1020800001E07B6804337B61BB69FF2B02D87B6A6C
:102090009B0002E07B6A083B9B003B617B691A68FE
:1020A0000F213B6901FA03F3DB431A40396A3B69AC
:1020B00001FA03F31A437B691A603B685B6803F01B
:1020C0008053002B00F0B1804D4B9B694C4A43F08C
:1020D000010393614A4B9B6903F00103BB60BB683A
:1020E000484A7B6A9B08023352F82330FB607B6AC4
:1020F00003F003039B000F2202FA03F3DB43FA68A9
:102100001340FB607B68404A934213D07B683F4A90
:1021100093420DD07B683E4A934207D07B683D4A8C
:10212000934201D1032306E0042304E0022302E0EA
:10213000012300E000237A6A02F003029200934038
:10214000FA681343FB602F497B6A9B080233FA68E5
:1021500041F823203B685B6803F48013002B06D012
:102160002D4B9A682C49BB6913438B6006E02A4BC0
:102170009A68BB69DB43284913408B603B685B6806
:1021800003F40013002B06D0234BDA682249BB6905
:102190001343CB6006E0204BDA68BB69DB431E4982
:1021A0001340CB603B685B6803F40033002B06D020
:1021B000194B5A681849BB6913434B6006E0164B2C
:1021C0005A68BB69DB43144913404B603B685B684A
:1021D00003F48033002B21D00F4B1A680E49BB69E2
:1021E00013430B6021E000BF0000321000003110EB
:1021F0000000221000002110000012100000111039
:10220000001002400000014000080140000C0140A5
:102210000010014000140140000401400B4B1A68FB
:10222000BB69DB43094913400B607B6A01337B6266
:102230003B681A687B6A22FA03F3002B7FF48EAEA8
:1022400000BF00BF2C37BD4680BC70470004014072
:1022500080B584B000AF78607B68002B01D101238A
:102260002BE17B6893F83D30DBB2002B06D17B6815
:10227000002283F83C207868FFF744FA7B68242228
:1022800083F83D207B681B681A687B681B6822F016
:1022900001021A607B681B681A687B681B6842F43D
:1022A00000421A607B681B681A687B681B6822F40E
:1022B00000421A6002F098FDF8607B685B68814A12
:1022C000934207D8FB68804A934294BF01230023BE
:1022D000DBB206E0FB687D4A934294BF01230023F2
:1022E000DBB2002B01D00123E7E0FB68784AA2FBB8
:1022F00003239B0CBB607B681B685B6823F03F017A
:102300007B681B68BA680A435A607B681B681B6A53
:1023100023F03F017B685B686A4A934202D8BB683E
:10232000013309E0BB684FF4967202FB03F3694A7C
:10233000A2FB03239B0901337A6812680B431362E3
:102340007B681B68DB6923F44F4222F0FF027B6845
:102350005B685C498B4219D8FB68591E7B685B68D7
:102360005B00B1FBF3F3591C40F6FC730B40002BF0
:102370000AD0FB68591E7B685B685B00B1FBF3F316
:102380000133C3F30B0351E004234FE07B689B68E8
:10239000002B11D1FB68581E7B6859680B465B0007
:1023A0000B44B0FBF3F30133C3F30B03002B0CBF5F
:1023B00001230023DBB212E0FB68581E7B685968DA
:1023C0000B469B000B4499000B44B0FBF3F3013325
:1023D000C3F30B03002B0CBF01230023DBB2002B44
:1023E00001D0012322E07B689B68002B0ED1FB68A3
:1023F000581E7B6859680B465B000B44B0FBF3F337
:102400000133C3F30B0343F400430FE0FB68581E92
:102410007B6859680B469B000B4499000B44B0FB4A
:10242000F3F30133C3F30B0343F4404379680968C2
:102430001343CB617B681B681B6823F0C0017B687A
:10244000DA697B681B6A1A437B681B680A431A6057
:102450007B681B689B6823F4034323F0FF037A68BF
:1024600011697A68D26811437A6812680B439360E5
:102470007B681B68DB6823F0FF017B685A697B6817
:102480009B691A437B681B680A43DA607B681B6898
:102490001A687B681B6842F001021A607B680022A0
:1024A0001A647B68202283F83D207B6800221A632F
:1024B0007B68002283F83E20002318461037BD4673
:1024C00080BD00BFA08601007F841E00FF083D0084
:1024D00083DE1B43D34D621080B483B000AF7860BD
:1024E0007B681B685B6903F08003802B03D17B68EA
:1024F0001B6800221A6100BF0C37BD4680BC7047C4
:1025000080B588B002AFF8607A601A460B467B81CE
:1025100013463B81FFF71CFB7861FB6893F83D3065
:10252000DBB2202B40F0E0807B690093192301226D
:102530007049F86801F06AFE0346002B01D00223BF
:10254000D3E0FB6893F83C30012B01D10223CCE0AF
:10255000FB68012283F83C20FB681B681B6803F0C2
:102560000103012B07D0FB681B681A68FB681B6816
:1025700042F001021A60FB681B681A68FB681B685E
:1025800022F400621A60FB68212283F83D20FB6878
:10259000102283F83E20FB6800221A64FB687A68E8
:1025A0005A62FB683A895A85FB685B8D9AB2FB6870
:1025B0001A85FB68504ADA6279897B693A6AF86859
:1025C00001F0FAFC0346002B01D001238DE000232B
:1025D0003B61FB681B685B693B61FB681B689B692F
:1025E0003B613B6966E07A69396AF86801F028FF67
:1025F0000346002B0DD0FB681B6C042B07D1FB6836
:102600001B681A68FB681B6842F400721A60012399
:102610006BE0FB685B6A1A78FB681B681A61FB68F1
:102620005B6A5A1CFB685A62FB685B8D9BB2013B7C
:102630009AB2FB685A85FB681B8D013B9AB2FB6816
:102640001A85FB681B685B6903F00403042B1BD12C
:10265000FB681B8D002B17D0FB685B6A1A78FB6840
:102660001B681A61FB685B6A5A1CFB685A62FB684C
:102670005B8D9BB2013B9AB2FB685A85FB681B8D50
:10268000013B9AB2FB681A857A69396AF86801F0E9
:102690001FFF0346002B0DD0FB681B6C042B07D1DA
:1026A000FB681B681A68FB681B6842F400721A60BA
:1026B00001231AE0FB681B8D002B94D1FB681B687B
:1026C0001A68FB681B6842F400721A60FB682022DB
:1026D00083F83D20FB68002283F83E20FB6800223F
:1026E00083F83C20002300E0022318461837BD463B
:1026F00080BD00BF020010000000FFFF80B487B063
:1027000000AFF860B9603B601346FB80FB6893F84C
:102710003D30DBB203F02803282B5BD1BB68002BD4
:1027200002D0FB88002B01D1012354E0FB6893F811
:102730003C30012B01D102234DE0FB68012283F8DC
:102740003C20FB681B681B6803F00103012B07D0CA
:10275000FB681B681A68FB681B6842F001021A607C
:10276000FB681B681A68FB681B6822F400621A6029
:10277000FB682A2283F83D20FB68202283F83E2054
:10278000FB6800221A64FB68BA685A62FB68FA8820
:102790005A85FB685B8D9AB2FB681A85FB683A68BC
:1027A000DA6200237B61FB681B685B697B61FB6805
:1027B0001B689B697B617B69FB68002283F83C2076
:1027C000FB681B685A68FB681B6842F4E0625A6049
:1027D000002300E0022318461C37BD4680BC70472A
:1027E00080B483B000AF78607B6893F83D30DBB293
:1027F000202B24D17B68282283F83D207B681B682E
:102800001B6803F00103012B07D07B681B681A6863
:102810007B681B6842F001021A607B681B681A68BB
:102820007B681B6842F480621A607B681B685A6888
:102830007B681B6842F440725A60002300E0022368
:1028400018460C37BD4680BC704780B588B000AFD5
:1028500078600023BB617B681B685B687B617B6879
:10286000DB6A3B617B6893F83E30FB737B6893F8CF
:102870003D30BB73FB7B102B03D0FB7B402B40F028
:10288000B1807B681B689B69BB617B681B685B6967
:10289000FB61FB6903F00103002B0DD13B69B3F52C
:1028A0002A0F03D03B69B3F12A4F01D1012300E085
:1028B0000023012B00F01481FB6903F00103002BBE
:1028C0000BD07B6903F40073002B06D0786801F00D
:1028D000A7FE786800F04CFD83E0FB6903F0080375
:1028E000002B08D07B6903F40073002B03D07868B9
:1028F00000F0C3FD75E0FB6903F00203002B08D074
:102900007B6903F40073002B03D0786800F0DEFDD0
:1029100067E0BB6903F00403002B36D07B681B68BB
:102920005B6803F40063B3F5006F00F0DB80FB69C4
:1029300003F08003002B0DD07B6903F48063002B30
:1029400008D0FB6903F00403002B03D1786800F082
:10295000ACF946E0FB6903F00403002B00F0C280F1
:102960007B6903F40073002B00F0BC80BB7B212B40
:1029700003D1786800F035FAB4E0FB7B402B40F0DF
:10298000B180786800F0A3FAACE07B681B685B68F4
:1029900003F40063B3F5006F00F0A480FB6903F05B
:1029A0004003002B0DD07B6903F48063002B08D01B
:1029B000FB6903F00403002B03D1786800F01FFBD0
:1029C0000FE0FB6903F00403002B00F08B807B69B0
:1029D00003F40073002B00F08580786800F0D7FBCB
:1029E00080E07FE07B681B6C002B04D07B681B6859
:1029F0005B69FB6107E07B681B689B69BB617B6867
:102A00001B685B69FB61FB6903F00203002B11D0BB
:102A10007B6903F40073002B0CD07B681B6C002BCC
:102A200003D07B681B689B69BB61B969786800F05B
:102A3000A4FF5AE0FB6903F01003002B08D07B6968
:102A400003F40073002B03D0786800F0DFFF4CE044
:102A5000BB7B212B02D0BB7B292B20D1FB6903F050
:102A60008003002B0DD07B6903F48063002B08D01A
:102A7000FB6903F00403002B03D1786800F0C1FE6A
:102A800032E0FB6903F00403002B2DD07B6903F4D3
:102A90000073002B28D0786800F0F0FE24E0FB697A
:102AA00003F04003002B0DD07B6903F48063002BFF
:102AB00008D0FB6903F00403002B03D1786800F011
:102AC000FDFE12E0FB6903F00403002B0DD07B69CF
:102AD00003F40073002B08D0786800F02DFF04E0A9
:102AE00000BF02E000BF00E000BF2037BD4680BD50
:102AF00080B58AB000AF78607B681B685B693B6219
:102B00007B681B685B68FB6100237B627B6893F8D2
:102B10003E30FB763B6A03F48073002B15D0FB69D3
:102B200003F48073002B10D07B6A43F001037B62B7
:102B30007B681B686FF480725A617B681B681A6837
:102B40007B681B6842F400421A603B6A03F400731E
:102B5000002B0DD0FB6903F48073002B08D07B6A37
:102B600043F002037B627B681B686FF400725A615A
:102B70003B6A03F48063002B3ED0FB6903F480734F
:102B8000002B39D0FB7EBB767B685B8D9BB27B6173
:102B90007B6893F83D30FB747B681B6BFB60BB7EEE
:102BA000202B12D17B69002B0FD1FB7C212B08D06D
:102BB000FB7C292B05D0FB7C282B06D1FB68212B25
:102BC00003D1786801F052F816E07B681B686FF457
:102BD00080625A617B6A43F004037B62FB7E102BA8
:102BE00002D0FB7E402B07D17B681B681A687B688C
:102BF0001B6842F400721A603B6A03F40063002B06
:102C00000DD0FB6903F48073002B08D07B6A43F07E
:102C100008037B627B681B686FF400625A617B6A01
:102C2000002B08D07B681A6C7B6A1A437B681A6495
:102C3000786801F08FF800BF2837BD4680BD80B4AA
:102C400083B000AF786000BF0C37BD4680BC7047D2
:102C500080B483B000AF786000BF0C37BD4680BC45
:102C6000704780B483B000AF786000BF0C37BD46BA
:102C700080BC704780B483B000AF786000BF0C3771
:102C8000BD4680BC704780B483B000AF786000BFA1
:102C90000C37BD4680BC704780B483B000AF78600D
:102CA00000BF0C37BD4680BC704780B584B000AF14
:102CB00078607B6893F83D30FB737B6893F83E3017
:102CC000BB737B68DB6ABB607B681B8D002B50D1BC
:102CD000FB7B212B4DD1BB68082B1DD0BB68202B63
:102CE0001AD0BB6813F5803F16D07B681B685A6802
:102CF0007B681B6822F4E0625A607B6811221A63C9
:102D00007B68002283F83E207B68202283F83D20E8
:102D10007868FFF794FF60E07B681B685A687B68FF
:102D20001B6822F4E0625A607B681B681A687B6843
:102D30001B6842F400721A607B6800221A637B6889
:102D4000202283F83D207B6893F83E30DBB2402B95
:102D500007D17B68002283F83E207868FFF78AFF5E
:102D60003BE07B68002283F83E207868FFF767FF2E
:102D700033E0FB7B212B05D0BB7B402B2DD1FB7B94
:102D8000222B2AD17B685B8D9BB2002B08D17B68FC
:102D90001B685A687B681B6822F480625A601CE0DA
:102DA0007B6893F83E30DBB2402B03D1786800F0AB
:102DB0008EF812E07B685B6A1A787B681B681A6180
:102DC0007B685B6A5A1C7B685A627B685B8D9BB22E
:102DD000013B9AB27B685A85FFE700BF1037BD46BA
:102DE00080BD80B584B000AF78607B68DB6AFB6033
:102DF0007B6893F83D30DBB2212B64D17B685B8D1F
:102E00009BB2002B12D07B685B6A1A787B681B68C8
:102E10001A617B685B6A5A1C7B685A627B685B8DAF
:102E20009BB2013B9AB27B685A854CE0FB68082B49
:102E30001DD0FB68202B1AD0FB6813F5803F16D0FD
:102E40007B681B685A687B681B6822F4E0625A60E2
:102E50007B6811221A637B68002283F83E207B681E
:102E6000202283F83D207868FFF7E9FE2BE07B689D
:102E70001B685A687B681B6822F4E0625A607B68B2
:102E80001B681A687B681B6842F400721A607B68D2
:102E900000221A637B68202283F83D207B6893F828
:102EA0003E30DBB2402B07D17B68002283F83E2006
:102EB0007868FFF7DFFE06E07B68002283F83E209B
:102EC0007868FFF7BCFE00BF1037BD4680BD80B5F7
:102ED00084B000AF78607B6893F83D30FB737B680B
:102EE0001B6D002B1DD17B68DB6C012B0BD17B682C
:102EF0009B6CDAB27B681B681A617B681B6D9A1C3D
:102F00007B681A6577E07B689B6C9BB21B12DAB218
:102F10007B681B681A617B681B6D5A1C7B681A658D
:102F200069E07B681B6D012B0BD17B689B6CDAB26F
:102F30007B681B681A617B681B6D5A1C7B681A656D
:102F400059E07B681B6D022B52D1FB7B222B0DD1EC
:102F50007B681B681A687B681B6842F480721A6081
:102F60007B681B6D5A1C7B681A6544E07B685B8D2F
:102F70009BB2002B15D0FB7B212B12D17B685B6AA7
:102F80001A787B681B681A617B685B6A5A1C7B68CD
:102F90005A627B685B8D9BB2013B9AB27B685A8513
:102FA00029E07B685B8D9BB2002B24D1FB7B212B1E
:102FB00021D17B681B685A687B681B6822F4E06239
:102FC0005A607B681B681A687B681B6842F4007251
:102FD0001A607B6800221A637B68202283F83D20F8
:102FE0007B68002283F83E207868FFF743FE02E00A
:102FF0007868FFF771FA00BF1037BD4680BD80B515
:1030000084B000AF78607B6893F83D30DBB2222B50
:1030100040F0B9807B68DB6AFB607B685B8D9BB2AC
:10302000BB60BB68032B21D97B681B681A697B686E
:103030005B6AD2B21A707B685B6A5A1C7B685A6200
:103040007B685B8D9BB2013B9AB27B685A857B683B
:103050005B8D9BB2032B40F096807B681B685A689F
:103060007B681B6822F480625A608CE07B68DB6AB4
:10307000022B7FD0BB68012B02D0BB68002B79D11B
:10308000786801F06DFA0346002B4CD17B681B6811
:103090001A687B681B6822F480621A607B681B6870
:1030A0005A687B681B6822F4E0625A607B681B6880
:1030B0001A697B685B6AD2B21A707B685B6A5A1CB9
:1030C0007B685A627B685B8D9BB2013B9AB27B68DE
:1030D0005A857B68202283F83D207B6893F83E3038
:1030E000DBB2402B0AD17B68002283F83E207B684C
:1030F00000221A637868FFF7C6FD44E07B6800226F
:1031000083F83E20FB68082B02D0FB68202B03D1FC
:103110007B6800221A6302E07B6812221A637868D7
:10312000FFF796FD2FE07B681B685A687B681B6879
:1031300022F4E0625A607B681B681A697B685B6AEC
:10314000D2B21A707B685B6A5A1C7B685A627B68D1
:103150005B8D9BB2013B9AB27B685A857B682022CB
:1031600083F83D207B68002283F83E207868FEF7D4
:103170006FF808E07B681B685A687B681B6822F45C
:1031800080625A60FFE700BF1037BD4680BD80B542
:1031900084B000AF78607B68DB6AFB607B685B8D26
:1031A0009BB2042B1BD17B681B685A687B681B6829
:1031B00022F480625A607B681B681A697B685B6ACC
:1031C000D2B21A707B685B6A5A1C7B685A627B6851
:1031D0005B8D9BB2013B9AB27B685A85C4E07B68E9
:1031E0005B8D9BB2032B29D17B681B685A687B6877
:1031F0001B6822F480625A60FB68042B0AD0FB68CB
:10320000022B07D07B681B681A687B681B6822F456
:1032100080621A607B681B681A697B685B6AD2B23D
:103220001A707B685B6A5A1C7B685A627B685B8D8C
:103230009BB2013B9AB27B685A8595E07B685B8DB7
:103240009BB2022B7DD1FB68012B02D0FB68102BB7
:1032500008D17B681B681A687B681B6822F480624F
:103260001A6016E0FB68042B02D0FB68022B08D121
:103270007B681B681A687B681B6842F480621A606E
:1032800007E07B681B681A687B681B6842F4007261
:103290001A607B681B681A697B685B6AD2B21A7015
:1032A0007B685B6A5A1C7B685A627B685B8D9BB249
:1032B000013B9AB27B685A857B681B681A697B68F8
:1032C0005B6AD2B21A707B685B6A5A1C7B685A626E
:1032D0007B685B8D9BB2013B9AB27B685A857B68A9
:1032E0001B685A687B681B6822F440725A607B68CE
:1032F000202283F83D207B6893F83E30DBB2402BE0
:103300000AD17B68002283F83E207B6800221A6382
:103310007868FFF7B8FC27E07B68002283F83E203E
:10332000FB68082B02D0FB68202B03D17B680022AE
:103330001A6302E07B6812221A637868FFF788FC40
:1033400012E07B681B681A697B685B6AD2B21A70EC
:103350007B685B6A5A1C7B685A627B685B8D9BB298
:10336000013B9AB27B685A8500BF1037BD4680BDCD
:1033700080B483B000AF78607B6893F83E30DBB2F6
:10338000402B17D17B681B6D002B09D17B685B6CD0
:10339000DBB21A467B681B6802F0FE021A6167E026
:1033A0007B685B6CDBB243F00103DAB27B681B68BD
:1033B0001A615DE07B681B69B3F5804F33D17B6890
:1033C00093F83D30DBB2212B09D17B685B6CDBB21B
:1033D0001A467B681B6802F0FE021A6108E07B68EF
:1033E0005B6CDBB243F00103DAB27B681B681A61E5
:1033F0007B685B6B002B04D07B685B6B9B6A002B4C
:1034000008D17B689B6B002B32D07B689B6B9B6ADF
:10341000002B2DD07B681B685A687B681B6842F4C0
:1034200000625A6024E07B681B6D002B0ED17B6824
:103430005B6C9BB2DB11DBB203F00603DBB263F023
:103440000F03DAB27B681B681A6111E07B681B6DA1
:10345000012B0DD17B685B6C9BB2DB11DBB203F0FF
:103460000603DBB263F00E03DAB27B681B681A61F5
:1034700000BF0C37BD4680BC704780B483B000AF3E
:1034800078607B685B6CDAB27B681B681A617B686A
:103490005B6B002B04D07B685B6B9B6A002B08D1B5
:1034A0007B689B6B002B0CD07B689B6B9B6A002B13
:1034B00007D07B681B685A687B681B6842F400620F
:1034C0005A6000BF0C37BD4680BC704780B491B0D5
:1034D00000AF78607B6893F83E3087F83F307B68B8
:1034E000DB6ABB637B681B6B7B637B6893F83D3057
:1034F000DBB2222B40F074817B681B6D002B0FD157
:1035000097F83F30402B0BD100233B637B681B684F
:103510005B693B637B681B689B693B633B6B6BE14F
:103520007B681B6D002B1DD17B681B69B3F5404F79
:1035300018D10023FB627B681B685B69FB627B68B8
:103540001B689B69FB62FB6A7B681B681A687B6867
:103550001B6842F480721A607B681B6D5A1C7B6882
:103560001A6549E17B685B8D9BB2002B13D1002368
:10357000BB627B681B685B69BB627B681B689B697D
:10358000BB62BB6A7B681B681A687B681B6842F475
:1035900000721A6020E17B685B8D9BB2012B40F0CA
:1035A0008A80BB6B13F5803F37D17B681B681A6834
:1035B0007B681B6822F480621A607B681B685B680A
:1035C00003F40063B3F5006F13D17B681B681A68BE
:1035D0007B681B6822F480621A6000237B627B6830
:1035E0001B685B697B627B681B689B697B627B6A8B
:1035F000F2E000233B627B681B685B693B627B688F
:103600001B689B693B623B6A7B681B681A687B6826
:103610001B6842F400721A60DEE0BB6B082B2ED0F0
:10362000BB6B202B2BD07B6B122B02D1BB6B012BE6
:1036300025D1BB6B042B0ED0BB6B022B0BD0BB6B0D
:10364000102B08D07B681B681A687B681B6822F403
:1036500080621A6007E07B681B681A687B681B68D9
:1036600042F480621A600023FB617B681B685B691F
:10367000FB617B681B689B69FB61FB69ACE07B6855
:103680001B681A687B681B6822F480621A6000233A
:10369000BB617B681B685B69BB617B681B689B695E
:1036A000BB61BB697B681B681A687B681B6842F456
:1036B00000721A6090E07B685B8D9BB2022B58D140
:1036C000BB6B042B21D0BB6B022B1ED0BB6B102B12
:1036D0001BD07B681B681A687B681B6842F4006219
:1036E0001A6000237B617B681B685B697B617B6878
:1036F0001B689B697B617B697B681B681A687B68B8
:103700001B6822F480621A6012E07B681B681A68EA
:103710007B681B6842F480621A6000233B617B680F
:103720001B685B693B617B681B689B693B613B690C
:103730007B681B685B6803F40063B3F5006F4BD1D3
:10374000BB6B13F5803F0BD0BB6B012B08D0BB6B61
:10375000082B05D0BB6B102B02D0BB6B202B3BD1B1
:103760007B681B685A687B681B6842F480525A6009
:1037700032E07B681B681A687B681B6842F48062D1
:103780001A607B681B685B6803F40063B3F5006F25
:1037900017D1BB6B13F5803F0BD0BB6B012B08D04F
:1037A000BB6B082B05D0BB6B102B02D0BB6B202B47
:1037B00007D17B681B685A687B681B6842F480529B
:1037C0005A600023FB607B681B685B69FB607B6859
:1037D0001B689B69FB60FB687B6800221A650BE035
:1037E0000023BB607B681B685B69BB607B681B68F0
:1037F0009B69BB60BB68FFE700BF4437BD4680BC28
:10380000704780B584B000AF78607B6893F83D3036
:10381000FB737B685B8D9BB2002B2BD07B685B6A54
:103820001A787B681B681A617B685B6A5A1C7B6824
:103830005A627B685B8D9BB2013B9AB27B685A856A
:103840007B685B8D9BB2002B14D1FB7B292B11D1A4
:103850007B681B685A687B681B6822F480625A6028
:103860007B6821221A637B68282283F83D207868D0
:10387000FFF7F7F900BF1037BD4680BD80B483B0B5
:1038800000AF78607B685B8D9BB2002B11D07B68AA
:103890005B6A1A787B681B681A617B685B6A5A1CD2
:1038A0007B685A627B685B8D9BB2013B9AB27B68F6
:1038B0005A8500BF0C37BD4680BC704780B584B0C8
:1038C00000AF78607B6893F83D30FB737B685B8D5D
:1038D0009BB2002B2CD07B681B681A697B685B6AE3
:1038E000D2B21A707B685B6A5A1C7B685A627B682A
:1038F0005B8D9BB2013B9AB27B685A857B685B8D7E
:103900009BB2002B14D1FB7B2A2B11D17B681B6847
:103910005A687B681B6822F480625A607B682222A6
:103920001A637B68282283F83D207868FDF75CFCE9
:1039300000BF1037BD4680BD80B483B000AF786053
:103940007B685B8D9BB2002B12D07B681B681A6969
:103950007B685B6AD2B21A707B685B6A5A1C7B68B0
:103960005A627B685B8D9BB2013B9AB27B685A8539
:1039700000BF0C37BD4680BC704780B584B000AF37
:10398000786039600023FB737B6893F83D30DBB2CD
:1039900003F02803282B25D17B681B685A687B68B5
:1039A0001B6822F480625A603B6803F00403002B1A
:1039B00001D10123FB733B6803F08003002B03D18B
:1039C0007B68DB68BB8102E07B689B69BB817B68AD
:1039D000002283F83C20BA89FB7B19467868FDF702
:1039E000DBFB0EE00023BB607B681B685B69BB6090
:1039F0007B681B689B69BB60BB687B68002283F89F
:103A00003C2000BF1037BD4680BD000080B584B0AB
:103A100000AF78607B6893F83D30FB737B681B6870
:103A20005A687B681B6822F4E0625A600023BB601E
:103A30007B681B685B69BB607B681B681A687B6876
:103A40001B6842F001021A60BB687B681B681A6839
:103A50007B681B6822F480621A607B681B685B6865
:103A600003F40063B3F5006F72D1FB7B222B02D00D
:103A7000FB7B2A2B35D17B689B6B1B685B689AB2FA
:103A80007B685A857B685B8D9BB2002B05D07B6879
:103A90001B6C43F004027B681A647B681B685A68DD
:103AA0007B681B6822F400625A607B689B6B184637
:103AB000FEF73CFA0346012B49D07B689B6B694AB1
:103AC0005A637B689B6B1846FEF7B8F90346002BD8
:103AD0003DD07B689B6B5B6B7A68926B1046984716
:103AE00035E07B685B6B1B685B689AB27B685A85C4
:103AF0007B685B8D9BB2002B05D07B681B6C43F011
:103B000004027B681A647B681B685A687B681B68C0
:103B100022F400625A607B685B6B1846FEF706FA77
:103B20000346012B14D07B685B6B4E4A5A637B685B
:103B30005B6B1846FEF782F90346002B08D07B68C2
:103B40005B6B5B6B7A68526B1046984700E000BF76
:103B50007B685B8D9BB2002B3ED07B681B685B69EA
:103B600003F00403042B12D17B681B681A697B687D
:103B70005B6AD2B21A707B685B6A5A1C7B685A62B5
:103B80007B685B8D9BB2013B9AB27B685A857B68F0
:103B90001B685B6903F04003402B12D17B681B68F4
:103BA0001A697B685B6AD2B21A707B685B6A5A1CBE
:103BB0007B685A627B685B8D9BB2013B9AB27B68E3
:103BC0005A857B685B8D9BB2002B05D07B681B6C94
:103BD00043F004027B681A647B681B6C002B03D0E3
:103BE000786800F0B7F839E0FB7B2A2B09D17B68B5
:103BF00000221A637B68282283F83D207868FDF74D
:103C0000F3FA7B6893F83D30DBB2282B11D17B6847
:103C1000154ADA627B6800221A637B68202283F8E7
:103C20003D207B68002283F83E207868FDF7A8FAE3
:103C300014E07B681B6B222B02D0FB7B222B0DD167
:103C40007B6800221A637B68202283F83D207B6812
:103C5000002283F83E207868FDF7C6FA00BF1037CF
:103C6000BD4680BDBD4000080000FFFF80B584B0A8
:103C700000AF78607B6893F83D30FB737B68DB6A4C
:103C8000BB60BB68082B02D0BB68202B29D1FB7B13
:103C9000282B26D17B682E4ADA627B681B685A681B
:103CA0007B681B6822F4E0625A607B681B686FF4D3
:103CB00080625A617B681B681A687B681B6822F403
:103CC00080621A607B6800221A637B68202283F876
:103CD0003D207B68002283F83E207868FDF750FA8B
:103CE00031E0FB7B212B29D17B68194ADA627B68A2
:103CF00021221A637B68202283F83D207B68002202
:103D000083F83E207B681B685A687B681B6822F436
:103D1000E0625A607B681B686FF480625A617B685E
:103D20001B681A687B681B6822F480621A607868D6
:103D3000FEF7D2FB7868FEF794FF04E07B681B680F
:103D40006FF480625A6100BF1037BD4680BD00BF6E
:103D50000000FFFF80B584B000AF78607B6893F807
:103D60003D30FB737B6893F83E30BB73BB7B102BFD
:103D700002D0BB7B402B0AD1FB7B222B07D17B6877
:103D80001B681A687B681B6822F400621A60FB7B60
:103D900003F02803282B07D17B6800221A637B6875
:103DA000282283F83D2015E07B681B685B6803F4DC
:103DB0000063B3F5006F0AD0FB7B602B07D07B68F4
:103DC000202283F83D207B68002283F83E207B6818
:103DD00000221A637B681B685B6803F40063B3F519
:103DE000006F62D17B681B685A687B681B6822F48D
:103DF00000625A607B685B6B93F82130DBB2012B69
:103E000020D07B685B6B6A4A5A637B685B6B1846A1
:103E1000FEF714F80346002B00F089807B681B68CE
:103E20001A687B681B6822F001021A607B682022F6
:103E300083F83D207B685B6B5B6B7A68526B104646
:103E4000984774E07B689B6B594A5A637B689B6B0D
:103E50001846FDF7F3FF0346002B68D07B681B680C
:103E60005B6903F04003402B0BD17B681B681A6928
:103E70007B685B6AD2B21A707B685B6A5A1C7B688B
:103E80005A627B681B681A687B681B6822F0010213
:103E90001A607B68202283F83D207B689B6B5B6BFC
:103EA0007A68926B1046984741E07B6893F83D3002
:103EB000DBB2602B25D17B68202283F83D207B6814
:103EC00000221A647B681B685B6903F04003402B87
:103ED0000BD17B681B681A697B685B6AD2B21A7067
:103EE0007B685B6A5A1C7B685A627B681B681A682D
:103EF0007B681B6822F001021A607868FEF7CCFE2E
:103F000015E07B681B685B6903F04003402B0BD115
:103F10007B681B681A697B685B6AD2B21A707B681F
:103F20005B6A5A1C7B685A627868FDF791F97B6876
:103F30001B6CBB60BB6803F00103002B0ED1BB6898
:103F400003F00203002B09D1BB6803F00403002B2C
:103F500004D1BB6803F00803002B07D07B681B6803
:103F60005A687B681B6822F4E0625A607B6893F8A9
:103F70003D30FB737B681B6C03F00403042B13D1EF
:103F8000FB7B282B10D17B680A4ADA627B6800220F
:103F90001A637B68202283F83D207B68002283F827
:103FA0003E207868FDF7ECF800BF1037BD4680BDB5
:103FB000BD4000080000FFFF80B588B002AFF86088
:103FC0007A603B600B467B81FB68DB6A7B617B69C7
:103FD000082B06D07B69012B03D07B6913F5803F4A
:103FE00008D1FB681B681A68FB681B6842F4807282
:103FF0001A600BE0FB681B6B122B07D1FB681B6878
:104000001A68FB681B6842F480721A603B68009370
:104010007B6800224FF00111F86800F0F7F80346C2
:10402000002B0DD0FB681B681B6803F48073B3F58D
:10403000807F03D1FB684FF400721A64032335E0DC
:10404000FB681B69B3F5804F08D17B89DBB21A4648
:10405000FB681B6802F0FE021A611BE07B89DB1122
:10406000DBB203F00603DBB263F00F03DAB2FB68E6
:104070001B681A613B687A680E49F86800F040F9DD
:104080000346002B01D0012310E07B89DAB2FB68E4
:104090001B681A613B687A680749F86800F030F9D4
:1040A0000346002B01D0012300E0002318461837F7
:1040B000BD4680BD080001000200010080B586B049
:1040C00000AF78600023FB607B685B6A7B617B6983
:1040D00093F83D30FB744B4B1B68DB084A4AA2FB4C
:1040E00003231A0A13469B001344DA00D31AFB6019
:1040F000FB68002B06D17B691B6C43F020027B69B7
:104100001A640AE0FB68013BFB607B691B681B6863
:1041100003F40073B3F5007FEAD07B695B6B002B7F
:1041200003D07B695B6B00229A627B699B6B002BDF
:1041300003D07B699B6B00229A627B691B681A68BB
:104140007B691B6822F480621A607B6900225A85B1
:104150007B695B6B002B03D07B695B6B00225A632E
:104160007B699B6B002B03D07B699B6B00225A639E
:104170007B691B681A687B691B6822F001021A6060
:104180007B6993F83D30DBB2602B0ED17B69202236
:1041900083F83D207B69002283F83E207B69002262
:1041A0001A647869FEF778FD27E0FB7C03F02803AA
:1041B000282B17D17B691B681A687B691B6842F042
:1041C00001021A607B691B681A687B691B6842F4EC
:1041D00080621A607B6900221A637B69282283F857
:1041E0003D2007E07B69202283F83D207B69002287
:1041F00083F83E207869FDF72BF800BF1837BD46DD
:1042000080BD00BF0000002089B5F81480B584B0DF
:1042100000AFF860B9603B601346FB7148E03B6853
:10422000B3F1FF3F44D0FDF793FC0246BB69D31ABC
:104230003A689A4202D33B68002B39D1BB681B0C09
:10424000DBB2012B0DD1FB681B685B69DA43BB68ED
:1042500013409BB2002B0CBF01230023DBB21A4694
:104260000CE0FB681B689B69DA43BB6813409BB298
:10427000002B0CBF01230023DBB21A46FB799A42C4
:1042800016D1FB6800221A63FB68202283F83D20C8
:10429000FB68002283F83E20FB681B6C43F0200281
:1042A000FB681A64FB68002283F83C20012323E0AA
:1042B000BB681B0CDBB2012B0DD1FB681B685B6973
:1042C000DA43BB6813409BB2002B0CBF01230023D1
:1042D000DBB21A460CE0FB681B689B69DA43BB68DB
:1042E00013409BB2002B0CBF01230023DBB21A4604
:1042F000FB799A4293D0002318461037BD4680BD03
:1043000080B584B000AFF860B9607A603B6071E05E
:10431000FB681B685B6903F48063B3F5806F23D18E
:10432000FB681B681A68FB681B6842F400721A601D
:10433000FB681B686FF480625A61FB6800221A6395
:10434000FB68202283F83D20FB68002283F83E2092
:10435000FB681B6C43F00402FB681A64FB680022D4
:1043600083F83C20012367E07B68B3F1FF3F41D035
:10437000FDF7EEFB02463B68D31A7A689A4202D3F5
:104380007B68002B36D1BB681B0CDBB2012B0CD138
:10439000FB681B685B69DA43BB6813409BB2002B68
:1043A00014BF01230023DBB20BE0FB681B689B6991
:1043B000DA43BB6813409BB2002B14BF01230023D8
:1043C000DBB2002B16D0FB6800221A63FB682022A8
:1043D00083F83D20FB68002283F83E20FB681B6CBD
:1043E00043F02002FB681A64FB68002283F83C203B
:1043F000012321E0BB681B0CDBB2012B0CD1FB6855
:104400001B685B69DA43BB6813409BB2002B14BF87
:1044100001230023DBB20BE0FB681B689B69DA43D6
:10442000BB6813409BB2002B14BF01230023DBB2F7
:10443000002B7FF46DAF002318461037BD4680BDBA
:1044400080B584B000AFF860B9607A6034E0F86895
:1044500000F0B8F80346002B01D0012334E0BB681C
:10446000B3F1FF3F28D0FDF773FB02467B68D31AF8
:10447000BA689A4202D3BB68002B1DD1FB681B6847
:104480005B6903F08003802B16D0FB6800221A635F
:10449000FB68202283F83D20FB68002283F83E2041
:1044A000FB681B6C43F02002FB681A64FB68002267
:1044B00083F83C20012307E0FB681B685B6903F07D
:1044C0008003802BC3D1002318461037BD4680BD22
:1044D00080B584B000AFF860B9607A6034E0F86805
:1044E00000F070F80346002B01D0012334E0BB68D4
:1044F000B3F1FF3F28D0FDF72BFB02467B68D31AB0
:10450000BA689A4202D3BB68002B1DD1FB681B68B6
:104510005B6903F00403042B16D0FB6800221A63C6
:10452000FB68202283F83D20FB68002283F83E20B0
:10453000FB681B6C43F02002FB681A64FB680022D6
:1045400083F83C20012307E0FB681B685B6903F0EC
:104550000403042BC3D1002318461037BD4680BD89
:1045600080B485B000AF78600023FB60134B1B68FC
:10457000DB08134AA2FB03231A0A13469B001344C9
:10458000FB60FB68013BFB60FB68002B07D17B688D
:104590001B6C43F020027B681A64012308E07B68EF
:1045A0001B681B6803F40073B3F5007FE9D0002398
:1045B00018461437BD4680BC704700BF000000207D
:1045C00089B5F81480B483B000AF78607B681B684D
:1045D0005B6903F48063B3F5806F1BD17B681B6854
:1045E0006FF480625A617B6800221A637B68202224
:1045F00083F83D207B68002283F83E207B681B6C9B
:1046000043F004027B681A647B68002283F83C2034
:10461000012300E0002318460C37BD4680BC7047DC
:1046200080B483B000AF78607B68DB6AB3F52A0F93
:1046300003D17B680122DA6207E07B68DB6AB3F1B1
:104640002A4F02D17B680822DA6200BF0C37BD46D0
:1046500080BC704780B586B000AF78607B68002B67
:1046600001D1012372E27B681B6803F00103002B78
:1046700000F08780924B5B6803F00C03042B0CD096
:104680008F4B5B6803F00C03082B12D18C4B5B68DB
:1046900003F48033B3F5803F0BD1894B1B6803F4DF
:1046A0000033002B6CD07B685B68002B68D1012342
:1046B0004CE27B685B68B3F5803F06D1804B1B689A
:1046C0007F4A43F4803313602EE07B685B68002BE5
:1046D0000CD17B4B1B687A4A23F480331360784BF0
:1046E0001B68774A23F4802313601DE07B685B68B6
:1046F000B3F5A02F0CD1724B1B68714A43F4802391
:1047000013606F4B1B686E4A43F4803313600BE0F9
:104710006B4B1B686A4A23F480331360684B1B6839
:10472000674A23F4802313607B685B68002B13D0F7
:10473000FDF70EFA386108E0FDF70AFA02463B6918
:10474000D31A642B01D9032300E25D4B1B6803F4E9
:104750000033002BF0D014E0FDF7FAF9386108E0DF
:10476000FDF7F6F902463B69D31A642B01D90323FE
:10477000ECE1534B1B6803F40033002BF0D100E055
:1047800000BF7B681B6803F00203002B63D04C4B17
:104790005B6803F00C03002B0BD0494B5B6803F004
:1047A0000C03082B1CD1464B5B6803F48033002BB1
:1047B00016D1434B1B6803F00203002B05D07B6826
:1047C0001B69012B01D00123C0E13D4B1B6823F085
:1047D000F8027B685B69DB00394913430B603AE000
:1047E0007B681B69002B20D0364B01221A60FDF735
:1047F000AFF9386108E0FDF7ABF902463B69D31A1F
:10480000022B01D90323A1E12D4B1B6803F0020306
:10481000002BF0D02A4B1B6823F0F8027B685B6901
:10482000DB00274913430B6015E0264B00221A607A
:10483000FDF78EF9386108E0FDF78AF902463B6919
:10484000D31A022B01D9032380E11D4B1B6803F00F
:104850000203002BF0D17B681B6803F00803002BD8
:104860003AD07B689B69002B19D0174B01221A6044
:10487000FDF76EF9386108E0FDF76AF902463B6919
:10488000D31A022B01D9032360E10D4B5B6A03F0BD
:104890000203002BF0D0012000F0CEFA1CE00A4BFE
:1048A00000221A60FDF754F938610FE0FDF750F966
:1048B00002463B69D31A022B08D9032346E100BF05
:1048C000001002400000424280044242924B5B6A68
:1048D00003F00203002BE9D17B681B6803F004039B
:1048E000002B00F0A6800023FB758B4BDB6903F0E7
:1048F0008053002B0DD1884BDB69874A43F08053EE
:10490000D361854BDB6903F08053BB60BB68012337
:10491000FB75824B1B6803F48073002B18D17F4B0F
:104920001B687E4A43F480731360FDF711F9386108
:1049300008E0FDF70DF902463B69D31A642B01D953
:10494000032303E1754B1B6803F48073002BF0D045
:104950007B68DB68012B06D16F4B1B6A6E4A43F004
:10496000010313622DE07B68DB68002B0CD16A4BDE
:104970001B6A694A23F001031362674B1B6A664A8C
:1049800023F0040313621CE07B68DB68052B0CD169
:10499000614B1B6A604A43F0040313625E4B1B6A5F
:1049A0005D4A43F0010313620BE05B4B1B6A5A4AFA
:1049B00023F001031362584B1B6A574A23F0040388
:1049C00013627B68DB68002B15D0FDF7C1F83861F6
:1049D0000AE0FDF7BDF802463B69D31A41F288327E
:1049E000934201D90323B1E04B4B1B6A03F002034E
:1049F000002BEED014E0FDF7ABF838610AE0FDF7CC
:104A0000A7F802463B69D31A41F28832934201D992
:104A100003239BE0404B1B6A03F00203002BEED103
:104A2000FB7D012B05D13C4BDB693B4A23F08053D6
:104A3000D3617B68DB69002B00F08780364B5B68B5
:104A400003F00C03082B61D07B68DB69022B46D195
:104A5000334B00221A60FDF77BF8386108E0FDF760
:104A600077F802463B69D31A022B01D903236DE084
:104A7000294B1B6803F00073002BF0D17B681B6A85
:104A8000B3F5803F08D1244B5B6823F400327B6888
:104A90009B68214913434B601F4B5B6823F47412DE
:104AA0007B68196A7B685B6A0B431B4913434B6045
:104AB0001B4B01221A60FDF74BF8386108E0FDF747
:104AC00047F802463B69D31A022B01D903233DE084
:104AD000114B1B6803F00073002BF0D035E0104B36
:104AE00000221A60FDF734F8386108E0FDF730F86D
:104AF00002463B69D31A022B01D9032326E0064B59
:104B00001B6803F00073002BF0D11EE07B68DB69AB
:104B1000012B07D1012319E0001002400070004072
:104B2000600042420B4B5B68FB60FB6803F4803221
:104B30007B681B6A9A4206D1FB6803F470127B689B
:104B40005B6A9A4201D0012300E00023184618371F
:104B5000BD4680BD0010024080B584B000AF7860D3
:104B600039607B68002B01D10123D0E06A4B1B68C0
:104B700003F007033A689A4210D9674B1B6823F089
:104B8000070265493B6813430B60634B1B6803F0E6
:104B900007033A689A4201D00123B8E07B681B689A
:104BA00003F00203002B20D07B681B6803F0040392
:104BB000002B05D0594B5B68584A43F4E0635360BF
:104BC0007B681B6803F00803002B05D0534B5B6820
:104BD000524A43F460535360504B5B6823F0F00239
:104BE0007B689B684D4913434B607B681B6803F0EF
:104BF0000103002B40D07B685B68012B07D1474B3A
:104C00001B6803F40033002B15D101237FE07B6880
:104C10005B68022B07D1414B1B6803F00073002B2C
:104C200009D1012373E03D4B1B6803F00203002B05
:104C300001D101236BE0394B5B6823F003027B68F1
:104C40005B68364913434B60FCF782FFF8600AE06B
:104C5000FCF77EFF0246FB68D31A41F2883293428A
:104C600001D9032353E02D4B5B6803F00C027B68F2
:104C70005B689B009A42EBD1274B1B6803F007034C
:104C80003A689A4210D2244B1B6823F0070222494B
:104C90003B6813430B60204B1B6803F007033A6823
:104CA0009A4201D0012332E07B681B6803F00403C1
:104CB000002B08D0194B5B6823F4E0627B68DB684B
:104CC000164913434B607B681B6803F00803002BF5
:104CD00009D0124B5B6823F460527B681B69DB00D0
:104CE0000E4913434B6000F021F802460B4B5B6802
:104CF0001B0903F00F030A49CB5C22FA03F3094AAC
:104D00001360094B1B681846FCF7E0FE00231846A9
:104D10001037BD4680BD00BF002002400010024099
:104D2000C0880008000000200400002080B487B084
:104D300000AF0023FB600023BB6000237B610023E6
:104D40007B6000233B611E4B5B68FB60FB6803F0EC
:104D50000C03042B02D0082B03D027E0194B3B6136
:104D600027E0FB689B0C03F00F03174AD35C7B60C2
:104D7000FB6803F48033002B10D0114B5B685B0C95
:104D800003F00103114AD35CBB607B680D4A03FB4F
:104D900002F2BB68B2FBF3F37B6104E07B680C4A70
:104DA00002FB03F37B617B693B6102E0054B3B61E6
:104DB00000BF3B6918461C37BD4680BC704700BF2A
:104DC0000010024000127A00D8880008E888000825
:104DD00000093D0080B400AF024B1B681846BD4679
:104DE00080BC70470000002080B500AFFFF7F2FFE5
:104DF0000246054B5B681B0A03F007030349CB5CC3
:104E000022FA03F3184680BD00100240D088000843
:104E100080B500AFFFF7DEFF0246054B5B68DB0A9B
:104E200003F007030349CB5C22FA03F3184680BD65
:104E300000100240D088000880B485B000AF7860D0
:104E40000A4B1B680A4AA2FB03235B0A7A6802FB2F
:104E500003F3FB6000BFFB685A1EFA60002BF9D118
:104E600000BF00BF1437BD4680BC70470000002063
:104E7000D34D621080B582B000AF78607B68002BA4
:104E800001D101234AE07B6893F84130DBB2002B6B
:104E900006D17B68002283F840207868FCF780FC0C
:104EA0007B68242283F841207B681B68DA687B6872
:104EB0001B6822F40052DA60786800F001FE7B681B
:104EC0001B681A697B681B6822F490421A617B6830
:104ED0001B685A697B681B6822F022025A617B6852
:104EE0001B685A697B681B6842F008025A617B683C
:104EF0001B68DA687B681B6842F40052DA607B68E2
:104F000000225A647B68202283F841207B6820229B
:104F100083F842207B6800225A6300231846083732
:104F2000BD4680BD80B58AB002AFF860B9603B6015
:104F30001346FB8000237B61FB6893F84130DBB2B2
:104F4000202B75D1BB68002B02D0FB88002B01D130
:104F500001236EE0FB6800225A64FB68212283F87B
:104F60004120FCF7F5FD7861FB68FA889A84FB68BC
:104F7000FA88DA84FB689B68B3F5805F08D1FB6828
:104F80001B69002B04D10023FB61BB68BB6103E0FC
:104F9000BB68FB610023BB612EE03B6800937B692B
:104FA00000228021F86800F097FB0346002B05D013
:104FB000FB68202283F8412003233AE0FB69002BA1
:104FC0000BD1BB691B881A46FB681B68C2F3080239
:104FD0005A60BB690233BB6107E0FB691A78FB6862
:104FE0001B685A60FB690133FB61FB68DB8C9BB279
:104FF000013B9AB2FB68DA84FB68DB8C9BB2002B26
:10500000CBD13B6800937B6900224021F86800F017
:1050100063FB0346002B05D0FB68202283F8412068
:10502000032306E0FB68202283F84120002300E0F0
:10503000022318462037BD4680BD80B58AB002AF36
:10504000F860B9603B601346FB8000237B61FB681E
:1050500093F84230DBB2202B40F08180BB68002BFC
:1050600002D0FB88002B01D1012379E0FB680022EC
:105070005A64FB68222283F84220FB6800221A63EC
:10508000FCF766FD7861FB68FA889A85FB68FA8808
:10509000DA85FB689B68B3F5805F08D1FB681B6904
:1050A000002B04D10023FB61BB68BB6103E0BB683C
:1050B000FB610023BB6147E03B6800937B690022F2
:1050C0002021F86800F008FB0346002B05D0FB68A0
:1050D000202283F84220032342E0FB69002B0CD1FD
:1050E000FB681B685B689BB2C3F308039AB2BB6999
:1050F0001A80BB690233BB611FE0FB689B68B3F594
:10510000805F07D0FB689B68002B0AD1FB681B6996
:10511000002B06D1FB681B685B68DAB2FB691A706A
:1051200008E0FB681B685B68DBB203F07F03DAB260
:10513000FB691A70FB690133FB61FB68DB8D9BB275
:10514000013B9AB2FB68DA85FB68DB8D9BB2002BD2
:10515000B2D1FB68202283F84220002300E0022322
:1051600018462037BD4680BD80B5BAB000AF786024
:105170007B681B681B68C7F8E4307B681B68DB68CA
:10518000C7F8E0307B681B685B69C7F8DC30002338
:10519000C7F8D8300023C7F8D430D7F8E43003F08C
:1051A0000F03C7F8D830D7F8D830002B0FD1D7F875
:1051B000E43003F02003002B09D0D7F8E03003F0EF
:1051C0002003002B03D0786800F0BCFB5BE2D7F82B
:1051D000D830002B00F0DE80D7F8DC3003F001037C
:1051E000002B06D1D7F8E03003F49073002B00F0C9
:1051F000D180D7F8E43003F00103002B0BD0D7F8AF
:10520000E03003F48073002B05D07B685B6C43F0C7
:1052100001027B685A64D7F8E43003F00403002BE2
:105220000BD0D7F8DC3003F00103002B05D07B68EE
:105230005B6C43F002027B685A64D7F8E43003F0F9
:105240000203002B0BD0D7F8DC3003F00103002B56
:1052500005D07B685B6C43F004027B685A64D7F826
:10526000E43003F00803002B11D0D7F8E03003F04E
:105270002003002B05D1D7F8DC3003F00103002B0D
:1052800005D07B685B6C43F008027B685A647B68DE
:105290005B6C002B00F0F281D7F8E43003F02003C0
:1052A000002B08D0D7F8E03003F02003002B02D009
:1052B000786800F047FB7B681B685B6903F040037C
:1052C000002B14BF01230023DBB2C7F8D4307B6866
:1052D0005B6C03F00803002B03D1D7F8D430002B0C
:1052E0004FD0786800F051FA7B681B685B6903F067
:1052F0004003002B41D07B681B681433C7F89C30F7
:10530000D7F89C3053E8003FC7F89830D7F898306A
:1053100023F04003C7F8D0307B681B681433D7F8FC
:10532000D020C7F8A820C7F8A430D7F8A410D7F821
:10533000A82041E80023C7F8A030D7F8A030002B00
:10534000D9D17B68DB6B002B13D07B68DB6B7E4A8B
:105350005A637B68DB6B1846FCF770FD0346002B35
:1053600016D07B68DB6B5B6B7A68D26B1046984714
:105370000EE0786800F09CF90AE0786800F098F98F
:1053800006E0786800F094F97B6800225A6475E1C1
:1053900000BF73E17B681B6B012B40F04F81D7F896
:1053A000E43003F01003002B00F04881D7F8E03020
:1053B00003F01003002B00F041810023BB607B68E9
:1053C0001B681B68BB607B681B685B68BB60BB6855
:1053D0007B681B685B6903F04003002B00F0B6801C
:1053E0007B68DB6B1B685B68A7F8BE30B7F8BE3024
:1053F000002B00F045817B689B8DB7F8BE209A4258
:1054000080F03E817B68B7F8BE20DA857B68DB6B75
:105410009B69202B00F088807B681B680C33C7F8E1
:105420008830D7F8883053E8003FC7F88430D7F881
:10543000843023F48073C7F8B8307B681B680C3362
:10544000D7F8B820C7F89420C7F89030D7F8901054
:10545000D7F8942041E80023C7F88C30D7F88C3077
:10546000002BD9D17B681B6814337B677B6F53E8B3
:10547000003F3B673B6F23F00103C7F8B4307B6804
:105480001B681433D7F8B420C7F88020FB67F96F86
:10549000D7F8802041E80023BB67BB6F002BE1D128
:1054A0007B681B6814333B663B6E53E8003FFB652B
:1054B000FB6D23F04003C7F8B0307B681B681433E2
:1054C000D7F8B020FA66BB66B96EFA6E41E80023E1
:1054D0007B667B6E002BE3D17B68202283F8422021
:1054E0007B6800221A637B681B680C33FB64FB6CCF
:1054F00053E8003FBB64BB6C23F01003C7F8AC302B
:105500007B681B680C33D7F8AC20BA657B65796D76
:10551000BA6D41E800233B653B6D002BE3D17B680E
:10552000DB6B1846FCF74FFC7B6802225A637B68F2
:105530009A8D7B68DB8D9BB2D31A9BB21946786833
:1055400000F0BFF89CE000BF4F5800087B689A8DC0
:105550007B68DB8D9BB2D31AA7F8CE307B68DB8DDE
:105560009BB2002B00F08E80B7F8CE30002B00F0FD
:1055700089807B681B680C33BB63BB6B53E8003FBF
:105580007B637B6B23F49073C7F8C8307B681B6820
:105590000C33D7F8C8207A643B64396C7A6C41E8E4
:1055A0000023FB63FB6B002BE3D17B681B68143388
:1055B0007B627B6A53E8003F3B623B6A23F0010356
:1055C000C7F8C4307B681B681433D7F8C4203A632B
:1055D000FB62F96A3A6B41E80023BB62BB6A002BAD
:1055E000E3D17B68202283F842207B6800221A6383
:1055F0007B681B680C333B613B6953E8003FFB60F1
:10560000FB6823F01003C7F8C0307B681B680C33BD
:10561000D7F8C020FA61BB61B969FA6941E8002393
:105620007B617B69002BE3D17B6802225A63B7F868
:10563000CE301946786800F044F823E0D7F8E4301B
:1056400003F08003002B09D0D7F8E03003F080038B
:10565000002B03D0786800F00EF914E0D7F8E4309E
:1056600003F04003002B0ED0D7F8E03003F04003E6
:10567000002B08D0786800F04DF904E000BF02E08C
:1056800000BF00E000BFE837BD4680BD80B483B0F6
:1056900000AF786000BF0C37BD4680BC704780B457
:1056A00083B000AF786000BF0C37BD4680BC704748
:1056B00080B483B000AF786000BF0C37BD4680BCBB
:1056C000704780B483B000AF78600B467B8000BF2A
:1056D0000C37BD4680BC704780B586B000AFF8601F
:1056E000B9603B601346FB713BE03B6AB3F1FF3F9F
:1056F00037D0FCF72DFA02463B68D31A3A6A9A4231
:1057000002D33B6A002B01D103233AE0FB681B68FC
:10571000DB6803F00403002B23D0BB68802B20D070
:10572000BB68402B1DD0FB681B681B6803F0080397
:10573000082B16D100237B61FB681B681B687B610B
:10574000FB681B685B687B617B69F86800F01DF88B
:10575000FB6808225A64FB68002283F8402001237A
:105760000FE0FB681B681A68BB681340BA689A426E
:105770000CBF01230023DBB21A46FB799A42B4D056
:10578000002318461837BD4680BD80B495B000AFE1
:1057900078607B681B680C337B637B6B53E8003F4E
:1057A0003B633B6B23F49073FB647B681B680C3397
:1057B000FA6C3A64FB63F96B3A6C41E80023BB6313
:1057C000BB6B002BE5D17B681B6814333B623B6AE3
:1057D00053E8003FFB61FB6923F00103BB647B6876
:1057E0001B681433BA6CFA62BB62B96AFA6A41E8A0
:1057F00000237B627B6A002BE5D17B681B6B012B4E
:1058000019D17B681B680C33FB60FB6853E8003FD1
:10581000BB60BB6823F010037B647B681B680C33A0
:105820007A6CBA617B617969BA6941E800233B61AE
:105830003B69002BE5D17B68202283F842207B68FE
:1058400000221A6300BF5437BD4680BC704780B544
:1058500084B000AF78607B685B6AFB60FB68002205
:10586000DA85FB680022DA84F868FFF721FF00BFC1
:105870001037BD4680BD80B485B000AF78607B68CE
:1058800093F84130DBB2212B3ED17B689B68B3F5A6
:10589000805F14D17B681B69002B10D17B681B6A69
:1058A000FB60FB681B881A467B681B68C2F3080212
:1058B0005A607B681B6A9A1C7B681A6208E07B68E6
:1058C0001B6A591C7A6811621A787B681B685A60D7
:1058D0007B68DB8C9BB2013B9BB27A681946D18412
:1058E000002B0FD17B681B68DA687B681B6822F08D
:1058F0008002DA607B681B68DA687B681B6842F0AC
:105900004002DA60002300E0022318461437BD4647
:1059100080BC704780B582B000AF78607B681B6840
:10592000DA687B681B6822F04002DA607B6820221C
:1059300083F841207868FFF7A9FE0023184608374E
:10594000BD4680BD80B58CB000AF78607B6893F8B1
:105950004230DBB2222B40F0AE807B689B68B3F50F
:10596000805F17D17B681B69002B13D10023FB627A
:105970007B689B6ABB627B681B685B689BB2C3F3F6
:1059800008039AB2BB6A1A807B689B6A9A1C7B6880
:105990009A6226E07B689B6AFB620023BB627B689D
:1059A0009B68B3F5805F07D07B689B68002B0AD1AA
:1059B0007B681B69002B06D17B681B685B68DAB2C9
:1059C000FB6A1A7008E07B681B685B68DBB203F057
:1059D0007F03DAB2FB6A1A707B689B6A5A1C7B6889
:1059E0009A627B68DB8D9BB2013B9BB27A68194659
:1059F000D185002B5DD17B681B68DA687B681B68EA
:105A000022F02002DA607B681B68DA687B681B681A
:105A100022F48072DA607B681B685A697B681B68B5
:105A200022F001025A617B68202283F842207B68C1
:105A300000225A637B681B6B012B35D17B680022E7
:105A40001A637B681B680C337B617B6953E8003FFA
:105A50003B613B6923F010037B627B681B680C335E
:105A60007A6A3A62FB61F9693A6A41E80023BB61EC
:105A7000BB69002BE5D17B681B681B6803F0100332
:105A8000102B0AD10023FB607B681B681B68FB603E
:105A90007B681B685B68FB60FB687B689B8D1946B5
:105AA0007868FFF70EFE02E07868FFF7F8FD002344
:105AB00002E0002300E0022318463037BD4680BDD7
:105AC00080B584B000AF78607B681B681B6923F4E5
:105AD00040517B68DA687B681B680A431A617B68FF
